{
  "_format": "hh-sol-artifact-1",
  "contractName": "JobRegistry",
  "sourceName": "contracts/JobRegistry.sol",
  "abi": [
    {
      "inputs": [
        {
          "internalType": "address",
          "name": "_componentRegistry",
          "type": "address"
        }
      ],
      "stateMutability": "nonpayable",
      "type": "constructor"
    },
    {
      "inputs": [
        {
          "internalType": "address",
          "name": "job",
          "type": "address"
        },
        {
          "internalType": "uint256",
          "name": "componentId",
          "type": "uint256"
        }
      ],
      "name": "AlreadyProposed",
      "type": "error"
    },
    {
      "inputs": [
        {
          "internalType": "uint256",
          "name": "componentId",
          "type": "uint256"
        }
      ],
      "name": "ComponentDoesNotExist",
      "type": "error"
    },
    {
      "inputs": [
        {
          "internalType": "address",
          "name": "job",
          "type": "address"
        },
        {
          "internalType": "uint256",
          "name": "componentId",
          "type": "uint256"
        }
      ],
      "name": "NotProposed",
      "type": "error"
    },
    {
      "inputs": [
        {
          "internalType": "uint256",
          "name": "provided",
          "type": "uint256"
        },
        {
          "internalType": "uint256",
          "name": "max",
          "type": "uint256"
        }
      ],
      "name": "Overflow",
      "type": "error"
    },
    {
      "inputs": [
        {
          "internalType": "address",
          "name": "sender",
          "type": "address"
        },
        {
          "internalType": "address",
          "name": "owner",
          "type": "address"
        }
      ],
      "name": "OwnerOnly",
      "type": "error"
    },
    {
      "inputs": [
        {
          "internalType": "uint256",
          "name": "numValues1",
          "type": "uint256"
        },
        {
          "internalType": "uint256",
          "name": "numValues2",
          "type": "uint256"
        }
      ],
      "name": "WrongArrayLength",
      "type": "error"
    },
    {
      "inputs": [],
      "name": "ZeroAddress",
      "type": "error"
    },
    {
      "inputs": [],
      "name": "ZeroValue",
      "type": "error"
    },
    {
      "anonymous": false,
      "inputs": [
        {
          "indexed": true,
          "internalType": "address[]",
          "name": "jobs",
          "type": "address[]"
        },
        {
          "indexed": false,
          "internalType": "uint256[]",
          "name": "componentIds",
          "type": "uint256[]"
        }
      ],
      "name": "Accepted",
      "type": "event"
    },
    {
      "anonymous": false,
      "inputs": [
        {
          "indexed": true,
          "internalType": "address",
          "name": "owner",
          "type": "address"
        }
      ],
      "name": "OwnerUpdated",
      "type": "event"
    },
    {
      "anonymous": false,
      "inputs": [
        {
          "indexed": true,
          "internalType": "address",
          "name": "account",
          "type": "address"
        },
        {
          "indexed": true,
          "internalType": "address[]",
          "name": "jobs",
          "type": "address[]"
        },
        {
          "indexed": false,
          "internalType": "uint256[]",
          "name": "componentIds",
          "type": "uint256[]"
        }
      ],
      "name": "Proposed",
      "type": "event"
    },
    {
      "anonymous": false,
      "inputs": [
        {
          "indexed": true,
          "internalType": "address",
          "name": "account",
          "type": "address"
        },
        {
          "indexed": true,
          "internalType": "address[]",
          "name": "jobs",
          "type": "address[]"
        },
        {
          "indexed": false,
          "internalType": "uint256[]",
          "name": "componentIds",
          "type": "uint256[]"
        }
      ],
      "name": "Removed",
      "type": "event"
    },
    {
      "inputs": [],
      "name": "SENTINEL",
      "outputs": [
        {
          "internalType": "uint256",
          "name": "",
          "type": "uint256"
        }
      ],
      "stateMutability": "view",
      "type": "function"
    },
    {
      "inputs": [
        {
          "internalType": "address[]",
          "name": "jobs",
          "type": "address[]"
        },
        {
          "internalType": "uint256[]",
          "name": "componentIds",
          "type": "uint256[]"
        }
      ],
      "name": "accept",
      "outputs": [],
      "stateMutability": "nonpayable",
      "type": "function"
    },
    {
      "inputs": [
        {
          "internalType": "address",
          "name": "newOwner",
          "type": "address"
        }
      ],
      "name": "changeOwner",
      "outputs": [],
      "stateMutability": "nonpayable",
      "type": "function"
    },
    {
      "inputs": [],
      "name": "componentRegistry",
      "outputs": [
        {
          "internalType": "address",
          "name": "",
          "type": "address"
        }
      ],
      "stateMutability": "view",
      "type": "function"
    },
    {
      "inputs": [
        {
          "internalType": "address",
          "name": "job",
          "type": "address"
        }
      ],
      "name": "getComponentIdHash",
      "outputs": [
        {
          "internalType": "uint256",
          "name": "componentId",
          "type": "uint256"
        },
        {
          "internalType": "bytes32",
          "name": "componentHash",
          "type": "bytes32"
        }
      ],
      "stateMutability": "view",
      "type": "function"
    },
    {
      "inputs": [
        {
          "internalType": "bool",
          "name": "accepted",
          "type": "bool"
        }
      ],
      "name": "getPairs",
      "outputs": [
        {
          "internalType": "address[]",
          "name": "jobs",
          "type": "address[]"
        },
        {
          "internalType": "uint256[]",
          "name": "componentIds",
          "type": "uint256[]"
        }
      ],
      "stateMutability": "view",
      "type": "function"
    },
    {
      "inputs": [
        {
          "internalType": "address",
          "name": "job",
          "type": "address"
        }
      ],
      "name": "isAcceptedJob",
      "outputs": [
        {
          "internalType": "bool",
          "name": "accepted",
          "type": "bool"
        }
      ],
      "stateMutability": "view",
      "type": "function"
    },
    {
      "inputs": [
        {
          "internalType": "address",
          "name": "job",
          "type": "address"
        },
        {
          "internalType": "uint256",
          "name": "componentId",
          "type": "uint256"
        }
      ],
      "name": "isAcceptedJobComponentId",
      "outputs": [
        {
          "internalType": "bool",
          "name": "accepted",
          "type": "bool"
        }
      ],
      "stateMutability": "view",
      "type": "function"
    },
    {
      "inputs": [
        {
          "internalType": "address",
          "name": "",
          "type": "address"
        }
      ],
      "name": "mapAcceptedJobIds",
      "outputs": [
        {
          "internalType": "uint256",
          "name": "",
          "type": "uint256"
        }
      ],
      "stateMutability": "view",
      "type": "function"
    },
    {
      "inputs": [
        {
          "internalType": "uint256",
          "name": "",
          "type": "uint256"
        }
      ],
      "name": "mapPairAccounts",
      "outputs": [
        {
          "internalType": "address",
          "name": "",
          "type": "address"
        }
      ],
      "stateMutability": "view",
      "type": "function"
    },
    {
      "inputs": [
        {
          "internalType": "uint256",
          "name": "",
          "type": "uint256"
        }
      ],
      "name": "mapProposals",
      "outputs": [
        {
          "internalType": "uint256",
          "name": "",
          "type": "uint256"
        }
      ],
      "stateMutability": "view",
      "type": "function"
    },
    {
      "inputs": [],
      "name": "numProposedPairs",
      "outputs": [
        {
          "internalType": "uint256",
          "name": "",
          "type": "uint256"
        }
      ],
      "stateMutability": "view",
      "type": "function"
    },
    {
      "inputs": [],
      "name": "owner",
      "outputs": [
        {
          "internalType": "address",
          "name": "",
          "type": "address"
        }
      ],
      "stateMutability": "view",
      "type": "function"
    },
    {
      "inputs": [
        {
          "internalType": "address[]",
          "name": "jobs",
          "type": "address[]"
        },
        {
          "internalType": "uint256[]",
          "name": "componentIds",
          "type": "uint256[]"
        }
      ],
      "name": "propose",
      "outputs": [],
      "stateMutability": "nonpayable",
      "type": "function"
    },
    {
      "inputs": [
        {
          "internalType": "address[]",
          "name": "jobs",
          "type": "address[]"
        },
        {
          "internalType": "uint256[]",
          "name": "componentIds",
          "type": "uint256[]"
        }
      ],
      "name": "remove",
      "outputs": [],
      "stateMutability": "nonpayable",
      "type": "function"
    }
  ],
  "bytecode": "0x60a060405234801561001057600080fd5b5060405161198b38038061198b83398101604081905261002f91610079565b600080546001600160a01b031916331790556001600160a01b0381166100685760405163d92e233d60e01b815260040160405180910390fd5b6001600160a01b03166080526100a9565b60006020828403121561008b57600080fd5b81516001600160a01b03811681146100a257600080fd5b9392505050565b6080516118b96100d2600039600081816102f601528181610ad3015261129101526118b96000f3fe608060405234801561001057600080fd5b50600436106100f55760003560e01c806389b60b2c11610097578063a6f9dae111610066578063a6f9dae1146102ae578063f00cab43146102c1578063fc5fe039146102c9578063ff0039cb146102f157600080fd5b806389b60b2c146101ec5780638a82f39a146102345780638da5cb5b146102555780639cc156c31461027557600080fd5b806362d60c9c116100d357806362d60c9c146101555780636966bce51461015e5780636b5e93ab1461017e5780638869d44a1461019157600080fd5b806301faac02146100fa57806336e2616d1461010f5780633f8d873f14610122575b600080fd5b61010d61010836600461149c565b610318565b005b61010d61011d36600461149c565b6105c6565b61014261013036600461155c565b60026020526000908152604090205481565b6040519081526020015b60405180910390f35b61014260015481565b61014261016c366004611575565b60046020526000908152604090205481565b61010d61018c36600461149c565b610937565b6101c761019f36600461155c565b60036020526000908152604090205473ffffffffffffffffffffffffffffffffffffffff1681565b60405173ffffffffffffffffffffffffffffffffffffffff909116815260200161014c565b6102246101fa366004611575565b73ffffffffffffffffffffffffffffffffffffffff16600090815260046020526040902054151590565b604051901515815260200161014c565b6102476102423660046115a8565b610e85565b60405161014c929190611600565b6000546101c79073ffffffffffffffffffffffffffffffffffffffff1681565b61022461028336600461166d565b73ffffffffffffffffffffffffffffffffffffffff9091166000908152600460205260409020541490565b61010d6102bc366004611575565b6110ff565b610142600181565b6102dc6102d7366004611575565b61122c565b6040805192835260208301919091520161014c565b6101c77f000000000000000000000000000000000000000000000000000000000000000081565b805182511461036557815181516040517f8151c110000000000000000000000000000000000000000000000000000000008152600481019290925260248201526044015b60405180910390fd5b81516000036103a0576040517f7c946ed700000000000000000000000000000000000000000000000000000000815260040160405180910390fd5b60005b825181101561055d5760008382815181106103c0576103c0611697565b602002602001015173ffffffffffffffffffffffffffffffffffffffff16905060a08383815181106103f4576103f4611697565b6020908102919091010151600054911b919091179073ffffffffffffffffffffffffffffffffffffffff163314801590610452575060008181526003602052604090205473ffffffffffffffffffffffffffffffffffffffff163314155b156104b857600081815260036020526040908190205490517fa43d6ada00000000000000000000000000000000000000000000000000000000815233600482015273ffffffffffffffffffffffffffffffffffffffff909116602482015260440161035c565b600081815260036020526040812080547fffffffffffffffffffffffff00000000000000000000000000000000000000001690558451600490829087908690811061050557610505611697565b602002602001015173ffffffffffffffffffffffffffffffffffffffff1673ffffffffffffffffffffffffffffffffffffffff168152602001908152602001600020819055505080610556906116c6565b90506103a3565b508160405161056c9190611725565b60405180910390203373ffffffffffffffffffffffffffffffffffffffff167f84ba984c1641c6a7594aa24771b202b19a6f69b7a90ff47d667e04f2cf1b4047836040516105ba9190611771565b60405180910390a35050565b60005473ffffffffffffffffffffffffffffffffffffffff163314610639576000546040517fa43d6ada00000000000000000000000000000000000000000000000000000000815233600482015273ffffffffffffffffffffffffffffffffffffffff909116602482015260440161035c565b805182511461068157815181516040517f8151c1100000000000000000000000000000000000000000000000000000000081526004810192909252602482015260440161035c565b81516000036106bc576040517f7c946ed700000000000000000000000000000000000000000000000000000000815260040160405180910390fd5b60005b82518110156108e55763ffffffff80168282815181106106e1576106e1611697565b602002602001015111156107515781818151811061070157610701611697565b602002602001015163ffffffff6040517f7ae5968500000000000000000000000000000000000000000000000000000000815260040161035c92919091825263ffffffff16602082015260400190565b600083828151811061076557610765611697565b602002602001015173ffffffffffffffffffffffffffffffffffffffff16905060a083838151811061079957610799611697565b60209081029190910181015190911b919091176000818152600390925260409091205473ffffffffffffffffffffffffffffffffffffffff1661085d578382815181106107e8576107e8611697565b602002602001015183838151811061080257610802611697565b60209081029190910101516040517f6b5883b400000000000000000000000000000000000000000000000000000000815273ffffffffffffffffffffffffffffffffffffffff9092166004830152602482015260440161035c565b82828151811061086f5761086f611697565b60200260200101516004600086858151811061088d5761088d611697565b602002602001015173ffffffffffffffffffffffffffffffffffffffff1673ffffffffffffffffffffffffffffffffffffffff1681526020019081526020016000208190555050806108de906116c6565b90506106bf565b50816040516108f49190611725565b60405180910390207f41b7accfa44f73674a8576fd2372dcc8981b02f4110fc9ad3f9859b55df6c5248260405161092b9190611771565b60405180910390a25050565b805182511461097f57815181516040517f8151c1100000000000000000000000000000000000000000000000000000000081526004810192909252602482015260440161035c565b81516000036109ba576040517f7c946ed700000000000000000000000000000000000000000000000000000000815260040160405180910390fd5b60005b8251811015610be957600073ffffffffffffffffffffffffffffffffffffffff168382815181106109f0576109f0611697565b602002602001015173ffffffffffffffffffffffffffffffffffffffff1603610a45576040517fd92e233d00000000000000000000000000000000000000000000000000000000815260040160405180910390fd5b818181518110610a5757610a57611697565b6020026020010151600003610a98576040517f7c946ed700000000000000000000000000000000000000000000000000000000815260040160405180910390fd5b63ffffffff8016828281518110610ab157610ab1611697565b60200260200101511115610ad15781818151811061070157610701611697565b7f000000000000000000000000000000000000000000000000000000000000000073ffffffffffffffffffffffffffffffffffffffff16634f558e79838381518110610b1f57610b1f611697565b60200260200101516040518263ffffffff1660e01b8152600401610b4591815260200190565b602060405180830381865afa158015610b62573d6000803e3d6000fd5b505050506040513d601f19601f82011682018060405250810190610b869190611784565b610bd957818181518110610b9c57610b9c611697565b60200260200101516040517feafdccd300000000000000000000000000000000000000000000000000000000815260040161035c91815260200190565b610be2816116c6565b90506109bd565b506001805490819060008215610c275750600160005260026020527fe90b7bceb6e7df5418fb78d8ee546e97c83a08bbccc01a0644d599ccd2a7c2e0545b60005b8651811015610dda576000878281518110610c4757610c47611697565b602002602001015173ffffffffffffffffffffffffffffffffffffffff16905060a0878381518110610c7b57610c7b611697565b6020026020010151901b8117905060006002600083815260200190815260200160002054600014159050808015610cd5575060008281526003602052604090205473ffffffffffffffffffffffffffffffffffffffff1615155b80610cdf57508185145b15610d6b57888381518110610cf657610cf6611697565b6020026020010151888481518110610d1057610d10611697565b60209081029190910101516040517fc7cf43f000000000000000000000000000000000000000000000000000000000815273ffffffffffffffffffffffffffffffffffffffff9092166004830152602482015260440161035c565b80610d935760009485526002602052604090942081905592839086610d8f816116c6565b9750505b50600090815260036020526040902080547fffffffffffffffffffffffff00000000000000000000000000000000000000001633179055610dd3816116c6565b9050610c2a565b5082600003610dfa57600082815260026020526040902060019055610e14565b60018214610e145760008281526002602052604090208190555b6001849055604051610e27908790611725565b60405180910390203373ffffffffffffffffffffffffffffffffffffffff167f466f0222c1dfd0d9a0d1bd40d9e9492928af72a897f8808c3e29282fc25d25ba87604051610e759190611771565b60405180910390a3505050505050565b6060806000600154905080600003610e9d5750915091565b60008167ffffffffffffffff811115610eb857610eb861133d565b604051908082528060200260200182016040528015610ee1578160200160208202803683370190505b50905060006001815b84811015610fb0576000918252600260205260409091205490878015610f38575073ffffffffffffffffffffffffffffffffffffffff821660009081526004602052604090205460a083901c145b80610f6f575087158015610f6f575060008281526003602052604090205473ffffffffffffffffffffffffffffffffffffffff1615155b15610fa05781848481518110610f8757610f87611697565b602090810291909101015282610f9c816116c6565b9350505b610fa9816116c6565b9050610eea565b5081600003610fc25750505050915091565b8167ffffffffffffffff811115610fdb57610fdb61133d565b604051908082528060200260200182016040528015611004578160200160208202803683370190505b5095508167ffffffffffffffff8111156110205761102061133d565b604051908082528060200260200182016040528015611049578160200160208202803683370190505b50945060005b828110156110f557600084828151811061106b5761106b611697565b602002602001015190508088838151811061108857611088611697565b602002602001019073ffffffffffffffffffffffffffffffffffffffff16908173ffffffffffffffffffffffffffffffffffffffff168152505060a081901c8783815181106110d9576110d9611697565b6020908102919091010152506110ee816116c6565b905061104f565b5050505050915091565b60005473ffffffffffffffffffffffffffffffffffffffff163314611172576000546040517fa43d6ada00000000000000000000000000000000000000000000000000000000815233600482015273ffffffffffffffffffffffffffffffffffffffff909116602482015260440161035c565b73ffffffffffffffffffffffffffffffffffffffff81166111bf576040517fd92e233d00000000000000000000000000000000000000000000000000000000815260040160405180910390fd5b600080547fffffffffffffffffffffffff00000000000000000000000000000000000000001673ffffffffffffffffffffffffffffffffffffffff8316908117825560405190917f4ffd725fc4a22075e9ec71c59edf9c38cdeb588a91b24fc5b61388c5be41282b91a250565b73ffffffffffffffffffffffffffffffffffffffff81166000908152600460205260408120549081810361125f57915091565b6040517f1655bfbe000000000000000000000000000000000000000000000000000000008152600481018390526000907f000000000000000000000000000000000000000000000000000000000000000073ffffffffffffffffffffffffffffffffffffffff1690631655bfbe90602401600060405180830381865afa1580156112ed573d6000803e3d6000fd5b505050506040513d6000823e601f3d9081017fffffffffffffffffffffffffffffffffffffffffffffffffffffffffffffffe016820160405261133391908101906117a1565b5192949293505050565b7f4e487b7100000000000000000000000000000000000000000000000000000000600052604160045260246000fd5b6040805190810167ffffffffffffffff8111828210171561138f5761138f61133d565b60405290565b604051601f82017fffffffffffffffffffffffffffffffffffffffffffffffffffffffffffffffe016810167ffffffffffffffff811182821017156113dc576113dc61133d565b604052919050565b600067ffffffffffffffff8211156113fe576113fe61133d565b5060051b60200190565b803573ffffffffffffffffffffffffffffffffffffffff8116811461142c57600080fd5b919050565b600082601f83011261144257600080fd5b81356020611457611452836113e4565b611395565b82815260059290921b8401810191818101908684111561147657600080fd5b8286015b84811015611491578035835291830191830161147a565b509695505050505050565b600080604083850312156114af57600080fd5b823567ffffffffffffffff808211156114c757600080fd5b818501915085601f8301126114db57600080fd5b813560206114eb611452836113e4565b82815260059290921b8401810191818101908984111561150a57600080fd5b948201945b8386101561152f5761152086611408565b8252948201949082019061150f565b9650508601359250508082111561154557600080fd5b5061155285828601611431565b9150509250929050565b60006020828403121561156e57600080fd5b5035919050565b60006020828403121561158757600080fd5b61159082611408565b9392505050565b80151581146115a557600080fd5b50565b6000602082840312156115ba57600080fd5b813561159081611597565b600081518084526020808501945080840160005b838110156115f5578151875295820195908201906001016115d9565b509495945050505050565b604080825283519082018190526000906020906060840190828701845b8281101561164f57815173ffffffffffffffffffffffffffffffffffffffff168452928401929084019060010161161d565b5050508381038285015261166381866115c5565b9695505050505050565b6000806040838503121561168057600080fd5b61168983611408565b946020939093013593505050565b7f4e487b7100000000000000000000000000000000000000000000000000000000600052603260045260246000fd5b60007fffffffffffffffffffffffffffffffffffffffffffffffffffffffffffffffff820361171e577f4e487b7100000000000000000000000000000000000000000000000000000000600052601160045260246000fd5b5060010190565b815160009082906020808601845b8381101561176557815173ffffffffffffffffffffffffffffffffffffffff1685529382019390820190600101611733565b50929695505050505050565b60208152600061159060208301846115c5565b60006020828403121561179657600080fd5b815161159081611597565b600060208083850312156117b457600080fd5b825167ffffffffffffffff808211156117cc57600080fd5b90840190604082870312156117e057600080fd5b6117e861136c565b8251815283830151828111156117fd57600080fd5b80840193505086601f84011261181257600080fd5b82519150611822611452836113e4565b82815260059290921b8301840191848101908884111561184157600080fd5b938501935b8385101561187257845163ffffffff811681146118635760008081fd5b82529385019390850190611846565b94820194909452969550505050505056fea2646970667358221220cc03318381f0091461468aaedc2d6edccea97347e606e8470a252ae303d2b4d364736f6c63430008130033",
  "linkReferences": {},
  "deployedLinkReferences": {}
}