{
  "_format": "hh-sol-artifact-1",
  "contractName": "JobRegistry",
  "sourceName": "contracts/JobRegistry.sol",
  "abi": [
    {
      "inputs": [
        {
          "internalType": "address",
          "name": "_componentRegistry",
          "type": "address"
        }
      ],
      "stateMutability": "nonpayable",
      "type": "constructor"
    },
    {
      "inputs": [
        {
          "internalType": "address",
          "name": "job",
          "type": "address"
        },
        {
          "internalType": "uint256",
          "name": "componentId",
          "type": "uint256"
        }
      ],
      "name": "AlreadyProposed",
      "type": "error"
    },
    {
      "inputs": [
        {
          "internalType": "uint256",
          "name": "componentId",
          "type": "uint256"
        }
      ],
      "name": "ComponentDoesNotExist",
      "type": "error"
    },
    {
      "inputs": [
        {
          "internalType": "address",
          "name": "job",
          "type": "address"
        },
        {
          "internalType": "uint256",
          "name": "componentId",
          "type": "uint256"
        }
      ],
      "name": "NotProposed",
      "type": "error"
    },
    {
      "inputs": [
        {
          "internalType": "uint256",
          "name": "provided",
          "type": "uint256"
        },
        {
          "internalType": "uint256",
          "name": "max",
          "type": "uint256"
        }
      ],
      "name": "Overflow",
      "type": "error"
    },
    {
      "inputs": [
        {
          "internalType": "address",
          "name": "sender",
          "type": "address"
        },
        {
          "internalType": "address",
          "name": "owner",
          "type": "address"
        }
      ],
      "name": "OwnerOnly",
      "type": "error"
    },
    {
      "inputs": [
        {
          "internalType": "uint256",
          "name": "numValues1",
          "type": "uint256"
        },
        {
          "internalType": "uint256",
          "name": "numValues2",
          "type": "uint256"
        }
      ],
      "name": "WrongArrayLength",
      "type": "error"
    },
    {
      "inputs": [],
      "name": "ZeroAddress",
      "type": "error"
    },
    {
      "inputs": [],
      "name": "ZeroValue",
      "type": "error"
    },
    {
      "anonymous": false,
      "inputs": [
        {
          "indexed": true,
          "internalType": "address",
          "name": "owner",
          "type": "address"
        },
        {
          "indexed": true,
          "internalType": "address[]",
          "name": "jobs",
          "type": "address[]"
        },
        {
          "indexed": false,
          "internalType": "uint256[]",
          "name": "componentIds",
          "type": "uint256[]"
        }
      ],
      "name": "Accepted",
      "type": "event"
    },
    {
      "anonymous": false,
      "inputs": [
        {
          "indexed": true,
          "internalType": "address",
          "name": "owner",
          "type": "address"
        }
      ],
      "name": "OwnerUpdated",
      "type": "event"
    },
    {
      "anonymous": false,
      "inputs": [
        {
          "indexed": true,
          "internalType": "address",
          "name": "account",
          "type": "address"
        },
        {
          "indexed": true,
          "internalType": "address[]",
          "name": "jobs",
          "type": "address[]"
        },
        {
          "indexed": false,
          "internalType": "uint256[]",
          "name": "componentIds",
          "type": "uint256[]"
        }
      ],
      "name": "Proposed",
      "type": "event"
    },
    {
      "anonymous": false,
      "inputs": [
        {
          "indexed": true,
          "internalType": "address",
          "name": "account",
          "type": "address"
        },
        {
          "indexed": true,
          "internalType": "address[]",
          "name": "jobs",
          "type": "address[]"
        },
        {
          "indexed": false,
          "internalType": "uint256[]",
          "name": "componentIds",
          "type": "uint256[]"
        }
      ],
      "name": "Removed",
      "type": "event"
    },
    {
      "inputs": [],
      "name": "SENTINEL",
      "outputs": [
        {
          "internalType": "uint256",
          "name": "",
          "type": "uint256"
        }
      ],
      "stateMutability": "view",
      "type": "function"
    },
    {
      "inputs": [
        {
          "internalType": "address[]",
          "name": "jobs",
          "type": "address[]"
        },
        {
          "internalType": "uint256[]",
          "name": "componentIds",
          "type": "uint256[]"
        }
      ],
      "name": "accept",
      "outputs": [],
      "stateMutability": "nonpayable",
      "type": "function"
    },
    {
      "inputs": [
        {
          "internalType": "address",
          "name": "newOwner",
          "type": "address"
        }
      ],
      "name": "changeOwner",
      "outputs": [],
      "stateMutability": "nonpayable",
      "type": "function"
    },
    {
      "inputs": [],
      "name": "componentRegistry",
      "outputs": [
        {
          "internalType": "address",
          "name": "",
          "type": "address"
        }
      ],
      "stateMutability": "view",
      "type": "function"
    },
    {
      "inputs": [
        {
          "internalType": "address",
          "name": "job",
          "type": "address"
        }
      ],
      "name": "getComponentIdHash",
      "outputs": [
        {
          "internalType": "uint256",
          "name": "componentId",
          "type": "uint256"
        },
        {
          "internalType": "bytes32",
          "name": "componentHash",
          "type": "bytes32"
        }
      ],
      "stateMutability": "view",
      "type": "function"
    },
    {
      "inputs": [
        {
          "internalType": "bool",
          "name": "accepted",
          "type": "bool"
        }
      ],
      "name": "getPairs",
      "outputs": [
        {
          "internalType": "address[]",
          "name": "jobs",
          "type": "address[]"
        },
        {
          "internalType": "uint256[]",
          "name": "componentIds",
          "type": "uint256[]"
        }
      ],
      "stateMutability": "view",
      "type": "function"
    },
    {
      "inputs": [
        {
          "internalType": "address",
          "name": "job",
          "type": "address"
        }
      ],
      "name": "isAcceptedJob",
      "outputs": [
        {
          "internalType": "bool",
          "name": "accepted",
          "type": "bool"
        }
      ],
      "stateMutability": "view",
      "type": "function"
    },
    {
      "inputs": [
        {
          "internalType": "address",
          "name": "job",
          "type": "address"
        },
        {
          "internalType": "uint256",
          "name": "componentId",
          "type": "uint256"
        }
      ],
      "name": "isAcceptedJobComponentId",
      "outputs": [
        {
          "internalType": "bool",
          "name": "accepted",
          "type": "bool"
        }
      ],
      "stateMutability": "view",
      "type": "function"
    },
    {
      "inputs": [
        {
          "internalType": "address",
          "name": "",
          "type": "address"
        }
      ],
      "name": "mapAcceptedJobIds",
      "outputs": [
        {
          "internalType": "uint256",
          "name": "",
          "type": "uint256"
        }
      ],
      "stateMutability": "view",
      "type": "function"
    },
    {
      "inputs": [
        {
          "internalType": "uint256",
          "name": "",
          "type": "uint256"
        }
      ],
      "name": "mapPairAccounts",
      "outputs": [
        {
          "internalType": "address",
          "name": "",
          "type": "address"
        }
      ],
      "stateMutability": "view",
      "type": "function"
    },
    {
      "inputs": [
        {
          "internalType": "uint256",
          "name": "",
          "type": "uint256"
        }
      ],
      "name": "mapProposals",
      "outputs": [
        {
          "internalType": "uint256",
          "name": "",
          "type": "uint256"
        }
      ],
      "stateMutability": "view",
      "type": "function"
    },
    {
      "inputs": [],
      "name": "numProposedPairs",
      "outputs": [
        {
          "internalType": "uint256",
          "name": "",
          "type": "uint256"
        }
      ],
      "stateMutability": "view",
      "type": "function"
    },
    {
      "inputs": [],
      "name": "owner",
      "outputs": [
        {
          "internalType": "address",
          "name": "",
          "type": "address"
        }
      ],
      "stateMutability": "view",
      "type": "function"
    },
    {
      "inputs": [
        {
          "internalType": "address[]",
          "name": "jobs",
          "type": "address[]"
        },
        {
          "internalType": "uint256[]",
          "name": "componentIds",
          "type": "uint256[]"
        }
      ],
      "name": "propose",
      "outputs": [],
      "stateMutability": "nonpayable",
      "type": "function"
    },
    {
      "inputs": [
        {
          "internalType": "address[]",
          "name": "jobs",
          "type": "address[]"
        },
        {
          "internalType": "uint256[]",
          "name": "componentIds",
          "type": "uint256[]"
        }
      ],
      "name": "remove",
      "outputs": [],
      "stateMutability": "nonpayable",
      "type": "function"
    }
  ],
  "bytecode": "0x60a060405234801561001057600080fd5b5060405161199c38038061199c83398101604081905261002f91610079565b600080546001600160a01b031916331790556001600160a01b0381166100685760405163d92e233d60e01b815260040160405180910390fd5b6001600160a01b03166080526100a9565b60006020828403121561008b57600080fd5b81516001600160a01b03811681146100a257600080fd5b9392505050565b6080516118ca6100d2600039600081816102f601528181610ae401526112a201526118ca6000f3fe608060405234801561001057600080fd5b50600436106100f55760003560e01c806389b60b2c11610097578063a6f9dae111610066578063a6f9dae1146102ae578063f00cab43146102c1578063fc5fe039146102c9578063ff0039cb146102f157600080fd5b806389b60b2c146101ec5780638a82f39a146102345780638da5cb5b146102555780639cc156c31461027557600080fd5b806362d60c9c116100d357806362d60c9c146101555780636966bce51461015e5780636b5e93ab1461017e5780638869d44a1461019157600080fd5b806301faac02146100fa57806336e2616d1461010f5780633f8d873f14610122575b600080fd5b61010d6101083660046114ad565b610318565b005b61010d61011d3660046114ad565b6105c6565b61014261013036600461156d565b60026020526000908152604090205481565b6040519081526020015b60405180910390f35b61014260015481565b61014261016c366004611586565b60046020526000908152604090205481565b61010d61018c3660046114ad565b610948565b6101c761019f36600461156d565b60036020526000908152604090205473ffffffffffffffffffffffffffffffffffffffff1681565b60405173ffffffffffffffffffffffffffffffffffffffff909116815260200161014c565b6102246101fa366004611586565b73ffffffffffffffffffffffffffffffffffffffff16600090815260046020526040902054151590565b604051901515815260200161014c565b6102476102423660046115b9565b610e96565b60405161014c929190611611565b6000546101c79073ffffffffffffffffffffffffffffffffffffffff1681565b61022461028336600461167e565b73ffffffffffffffffffffffffffffffffffffffff9091166000908152600460205260409020541490565b61010d6102bc366004611586565b611110565b610142600181565b6102dc6102d7366004611586565b61123d565b6040805192835260208301919091520161014c565b6101c77f000000000000000000000000000000000000000000000000000000000000000081565b805182511461036557815181516040517f8151c110000000000000000000000000000000000000000000000000000000008152600481019290925260248201526044015b60405180910390fd5b81516000036103a0576040517f7c946ed700000000000000000000000000000000000000000000000000000000815260040160405180910390fd5b60005b825181101561055d5760008382815181106103c0576103c06116a8565b602002602001015173ffffffffffffffffffffffffffffffffffffffff16905060a08383815181106103f4576103f46116a8565b6020908102919091010151600054911b919091179073ffffffffffffffffffffffffffffffffffffffff163314801590610452575060008181526003602052604090205473ffffffffffffffffffffffffffffffffffffffff163314155b156104b857600081815260036020526040908190205490517fa43d6ada00000000000000000000000000000000000000000000000000000000815233600482015273ffffffffffffffffffffffffffffffffffffffff909116602482015260440161035c565b600081815260036020526040812080547fffffffffffffffffffffffff000000000000000000000000000000000000000016905584516004908290879086908110610505576105056116a8565b602002602001015173ffffffffffffffffffffffffffffffffffffffff1673ffffffffffffffffffffffffffffffffffffffff168152602001908152602001600020819055505080610556906116d7565b90506103a3565b508160405161056c9190611736565b60405180910390203373ffffffffffffffffffffffffffffffffffffffff167f84ba984c1641c6a7594aa24771b202b19a6f69b7a90ff47d667e04f2cf1b4047836040516105ba9190611782565b60405180910390a35050565b60005473ffffffffffffffffffffffffffffffffffffffff163314610639576000546040517fa43d6ada00000000000000000000000000000000000000000000000000000000815233600482015273ffffffffffffffffffffffffffffffffffffffff909116602482015260440161035c565b805182511461068157815181516040517f8151c1100000000000000000000000000000000000000000000000000000000081526004810192909252602482015260440161035c565b81516000036106bc576040517f7c946ed700000000000000000000000000000000000000000000000000000000815260040160405180910390fd5b60005b82518110156108e55763ffffffff80168282815181106106e1576106e16116a8565b6020026020010151111561075157818181518110610701576107016116a8565b602002602001015163ffffffff6040517f7ae5968500000000000000000000000000000000000000000000000000000000815260040161035c92919091825263ffffffff16602082015260400190565b6000838281518110610765576107656116a8565b602002602001015173ffffffffffffffffffffffffffffffffffffffff16905060a0838381518110610799576107996116a8565b60209081029190910181015190911b919091176000818152600390925260409091205473ffffffffffffffffffffffffffffffffffffffff1661085d578382815181106107e8576107e86116a8565b6020026020010151838381518110610802576108026116a8565b60209081029190910101516040517f6b5883b400000000000000000000000000000000000000000000000000000000815273ffffffffffffffffffffffffffffffffffffffff9092166004830152602482015260440161035c565b82828151811061086f5761086f6116a8565b60200260200101516004600086858151811061088d5761088d6116a8565b602002602001015173ffffffffffffffffffffffffffffffffffffffff1673ffffffffffffffffffffffffffffffffffffffff1681526020019081526020016000208190555050806108de906116d7565b90506106bf565b50816040516108f49190611736565b604051908190038120600054909173ffffffffffffffffffffffffffffffffffffffff909116907f01e86f2bb0777ebf78e1c70de3b7ae9a7075d2670d9407db1c4f3190273832d2906105ba908590611782565b805182511461099057815181516040517f8151c1100000000000000000000000000000000000000000000000000000000081526004810192909252602482015260440161035c565b81516000036109cb576040517f7c946ed700000000000000000000000000000000000000000000000000000000815260040160405180910390fd5b60005b8251811015610bfa57600073ffffffffffffffffffffffffffffffffffffffff16838281518110610a0157610a016116a8565b602002602001015173ffffffffffffffffffffffffffffffffffffffff1603610a56576040517fd92e233d00000000000000000000000000000000000000000000000000000000815260040160405180910390fd5b818181518110610a6857610a686116a8565b6020026020010151600003610aa9576040517f7c946ed700000000000000000000000000000000000000000000000000000000815260040160405180910390fd5b63ffffffff8016828281518110610ac257610ac26116a8565b60200260200101511115610ae257818181518110610701576107016116a8565b7f000000000000000000000000000000000000000000000000000000000000000073ffffffffffffffffffffffffffffffffffffffff16634f558e79838381518110610b3057610b306116a8565b60200260200101516040518263ffffffff1660e01b8152600401610b5691815260200190565b602060405180830381865afa158015610b73573d6000803e3d6000fd5b505050506040513d601f19601f82011682018060405250810190610b979190611795565b610bea57818181518110610bad57610bad6116a8565b60200260200101516040517feafdccd300000000000000000000000000000000000000000000000000000000815260040161035c91815260200190565b610bf3816116d7565b90506109ce565b506001805490819060008215610c385750600160005260026020527fe90b7bceb6e7df5418fb78d8ee546e97c83a08bbccc01a0644d599ccd2a7c2e0545b60005b8651811015610deb576000878281518110610c5857610c586116a8565b602002602001015173ffffffffffffffffffffffffffffffffffffffff16905060a0878381518110610c8c57610c8c6116a8565b6020026020010151901b8117905060006002600083815260200190815260200160002054600014159050808015610ce6575060008281526003602052604090205473ffffffffffffffffffffffffffffffffffffffff1615155b80610cf057508185145b15610d7c57888381518110610d0757610d076116a8565b6020026020010151888481518110610d2157610d216116a8565b60209081029190910101516040517fc7cf43f000000000000000000000000000000000000000000000000000000000815273ffffffffffffffffffffffffffffffffffffffff9092166004830152602482015260440161035c565b80610da45760009485526002602052604090942081905592839086610da0816116d7565b9750505b50600090815260036020526040902080547fffffffffffffffffffffffff00000000000000000000000000000000000000001633179055610de4816116d7565b9050610c3b565b5082600003610e0b57600082815260026020526040902060019055610e25565b60018214610e255760008281526002602052604090208190555b6001849055604051610e38908790611736565b60405180910390203373ffffffffffffffffffffffffffffffffffffffff167f466f0222c1dfd0d9a0d1bd40d9e9492928af72a897f8808c3e29282fc25d25ba87604051610e869190611782565b60405180910390a3505050505050565b6060806000600154905080600003610eae5750915091565b60008167ffffffffffffffff811115610ec957610ec961134e565b604051908082528060200260200182016040528015610ef2578160200160208202803683370190505b50905060006001815b84811015610fc1576000918252600260205260409091205490878015610f49575073ffffffffffffffffffffffffffffffffffffffff821660009081526004602052604090205460a083901c145b80610f80575087158015610f80575060008281526003602052604090205473ffffffffffffffffffffffffffffffffffffffff1615155b15610fb15781848481518110610f9857610f986116a8565b602090810291909101015282610fad816116d7565b9350505b610fba816116d7565b9050610efb565b5081600003610fd35750505050915091565b8167ffffffffffffffff811115610fec57610fec61134e565b604051908082528060200260200182016040528015611015578160200160208202803683370190505b5095508167ffffffffffffffff8111156110315761103161134e565b60405190808252806020026020018201604052801561105a578160200160208202803683370190505b50945060005b8281101561110657600084828151811061107c5761107c6116a8565b6020026020010151905080888381518110611099576110996116a8565b602002602001019073ffffffffffffffffffffffffffffffffffffffff16908173ffffffffffffffffffffffffffffffffffffffff168152505060a081901c8783815181106110ea576110ea6116a8565b6020908102919091010152506110ff816116d7565b9050611060565b5050505050915091565b60005473ffffffffffffffffffffffffffffffffffffffff163314611183576000546040517fa43d6ada00000000000000000000000000000000000000000000000000000000815233600482015273ffffffffffffffffffffffffffffffffffffffff909116602482015260440161035c565b73ffffffffffffffffffffffffffffffffffffffff81166111d0576040517fd92e233d00000000000000000000000000000000000000000000000000000000815260040160405180910390fd5b600080547fffffffffffffffffffffffff00000000000000000000000000000000000000001673ffffffffffffffffffffffffffffffffffffffff8316908117825560405190917f4ffd725fc4a22075e9ec71c59edf9c38cdeb588a91b24fc5b61388c5be41282b91a250565b73ffffffffffffffffffffffffffffffffffffffff81166000908152600460205260408120549081810361127057915091565b6040517f1655bfbe000000000000000000000000000000000000000000000000000000008152600481018390526000907f000000000000000000000000000000000000000000000000000000000000000073ffffffffffffffffffffffffffffffffffffffff1690631655bfbe90602401600060405180830381865afa1580156112fe573d6000803e3d6000fd5b505050506040513d6000823e601f3d9081017fffffffffffffffffffffffffffffffffffffffffffffffffffffffffffffffe016820160405261134491908101906117b2565b5192949293505050565b7f4e487b7100000000000000000000000000000000000000000000000000000000600052604160045260246000fd5b6040805190810167ffffffffffffffff811182821017156113a0576113a061134e565b60405290565b604051601f82017fffffffffffffffffffffffffffffffffffffffffffffffffffffffffffffffe016810167ffffffffffffffff811182821017156113ed576113ed61134e565b604052919050565b600067ffffffffffffffff82111561140f5761140f61134e565b5060051b60200190565b803573ffffffffffffffffffffffffffffffffffffffff8116811461143d57600080fd5b919050565b600082601f83011261145357600080fd5b81356020611468611463836113f5565b6113a6565b82815260059290921b8401810191818101908684111561148757600080fd5b8286015b848110156114a2578035835291830191830161148b565b509695505050505050565b600080604083850312156114c057600080fd5b823567ffffffffffffffff808211156114d857600080fd5b818501915085601f8301126114ec57600080fd5b813560206114fc611463836113f5565b82815260059290921b8401810191818101908984111561151b57600080fd5b948201945b838610156115405761153186611419565b82529482019490820190611520565b9650508601359250508082111561155657600080fd5b5061156385828601611442565b9150509250929050565b60006020828403121561157f57600080fd5b5035919050565b60006020828403121561159857600080fd5b6115a182611419565b9392505050565b80151581146115b657600080fd5b50565b6000602082840312156115cb57600080fd5b81356115a1816115a8565b600081518084526020808501945080840160005b83811015611606578151875295820195908201906001016115ea565b509495945050505050565b604080825283519082018190526000906020906060840190828701845b8281101561166057815173ffffffffffffffffffffffffffffffffffffffff168452928401929084019060010161162e565b5050508381038285015261167481866115d6565b9695505050505050565b6000806040838503121561169157600080fd5b61169a83611419565b946020939093013593505050565b7f4e487b7100000000000000000000000000000000000000000000000000000000600052603260045260246000fd5b60007fffffffffffffffffffffffffffffffffffffffffffffffffffffffffffffffff820361172f577f4e487b7100000000000000000000000000000000000000000000000000000000600052601160045260246000fd5b5060010190565b815160009082906020808601845b8381101561177657815173ffffffffffffffffffffffffffffffffffffffff1685529382019390820190600101611744565b50929695505050505050565b6020815260006115a160208301846115d6565b6000602082840312156117a757600080fd5b81516115a1816115a8565b600060208083850312156117c557600080fd5b825167ffffffffffffffff808211156117dd57600080fd5b90840190604082870312156117f157600080fd5b6117f961137d565b82518152838301518281111561180e57600080fd5b80840193505086601f84011261182357600080fd5b82519150611833611463836113f5565b82815260059290921b8301840191848101908884111561185257600080fd5b938501935b8385101561188357845163ffffffff811681146118745760008081fd5b82529385019390850190611857565b94820194909452969550505050505056fea2646970667358221220ccdea43aacce496e8e4866e21d4953535cfd48413e101a0652a287920a7a915a64736f6c63430008130033",
  "linkReferences": {},
  "deployedLinkReferences": {}
}